{
  "_format": "hh-sol-artifact-1",
  "contractName": "WasteTrace",
  "sourceName": "contracts/WasteTrace.sol",
  "abi": [
    {
      "anonymous": false,
      "inputs": [
        {
          "indexed": false,
          "internalType": "uint256",
          "name": "id",
          "type": "uint256"
        },
        {
          "indexed": false,
          "internalType": "string",
          "name": "status",
          "type": "string"
        }
      ],
      "name": "StatusUpdated",
      "type": "event"
    },
    {
      "anonymous": false,
      "inputs": [
        {
          "indexed": false,
          "internalType": "uint256",
          "name": "id",
          "type": "uint256"
        },
        {
          "indexed": false,
          "internalType": "address",
          "name": "owner",
          "type": "address"
        }
      ],
      "name": "WasteCreated",
      "type": "event"
    },
    {
      "anonymous": false,
      "inputs": [
        {
          "indexed": false,
          "internalType": "uint256",
          "name": "id",
          "type": "uint256"
        },
        {
          "indexed": false,
          "internalType": "address",
          "name": "from",
          "type": "address"
        },
        {
          "indexed": false,
          "internalType": "address",
          "name": "to",
          "type": "address"
        }
      ],
      "name": "WasteTransferred",
      "type": "event"
    },
    {
      "inputs": [],
      "name": "count",
      "outputs": [
        {
          "internalType": "uint256",
          "name": "",
          "type": "uint256"
        }
      ],
      "stateMutability": "view",
      "type": "function"
    },
    {
      "inputs": [
        {
          "internalType": "string",
          "name": "_type",
          "type": "string"
        }
      ],
      "name": "createWaste",
      "outputs": [],
      "stateMutability": "nonpayable",
      "type": "function"
    },
    {
      "inputs": [
        {
          "internalType": "uint256",
          "name": "_id",
          "type": "uint256"
        }
      ],
      "name": "getWaste",
      "outputs": [
        {
          "components": [
            {
              "internalType": "uint256",
              "name": "id",
              "type": "uint256"
            },
            {
              "internalType": "string",
              "name": "wasteType",
              "type": "string"
            },
            {
              "internalType": "string",
              "name": "status",
              "type": "string"
            },
            {
              "internalType": "address",
              "name": "owner",
              "type": "address"
            },
            {
              "internalType": "uint256",
              "name": "timestamp",
              "type": "uint256"
            }
          ],
          "internalType": "struct WasteTrace.Waste",
          "name": "",
          "type": "tuple"
        }
      ],
      "stateMutability": "view",
      "type": "function"
    },
    {
      "inputs": [
        {
          "internalType": "uint256",
          "name": "_id",
          "type": "uint256"
        },
        {
          "internalType": "address",
          "name": "_to",
          "type": "address"
        }
      ],
      "name": "transferWaste",
      "outputs": [],
      "stateMutability": "nonpayable",
      "type": "function"
    },
    {
      "inputs": [
        {
          "internalType": "uint256",
          "name": "_id",
          "type": "uint256"
        },
        {
          "internalType": "string",
          "name": "_status",
          "type": "string"
        }
      ],
      "name": "updateStatus",
      "outputs": [],
      "stateMutability": "nonpayable",
      "type": "function"
    },
    {
      "inputs": [
        {
          "internalType": "uint256",
          "name": "",
          "type": "uint256"
        }
      ],
      "name": "wastes",
      "outputs": [
        {
          "internalType": "uint256",
          "name": "id",
          "type": "uint256"
        },
        {
          "internalType": "string",
          "name": "wasteType",
          "type": "string"
        },
        {
          "internalType": "string",
          "name": "status",
          "type": "string"
        },
        {
          "internalType": "address",
          "name": "owner",
          "type": "address"
        },
        {
          "internalType": "uint256",
          "name": "timestamp",
          "type": "uint256"
        }
      ],
      "stateMutability": "view",
      "type": "function"
    }
  ],
  "bytecode": "0x6080604052348015600f57600080fd5b506112b48061001f6000396000f3fe608060405234801561001057600080fd5b50600436106100625760003560e01c806306661abd1461006757806356afa042146100855780637c13dd3a146100a157806386d6c0bb146100d15780638eeaa47914610105578063d1b34dd814610121575b600080fd5b61006f61013d565b60405161007c91906108ba565b60405180910390f35b61009f600480360381019061009a9190610973565b610143565b005b6100bb60048036038101906100b691906109b3565b610279565b6040516100c89190610b0b565b60405180910390f35b6100eb60048036038101906100e691906109b3565b610433565b6040516100fc959493929190610b86565b60405180910390f35b61011f600480360381019061011a9190610d1c565b610599565b005b61013b60048036038101906101369190610d65565b610701565b005b60015481565b3373ffffffffffffffffffffffffffffffffffffffff1660008084815260200190815260200160002060030160009054906101000a900473ffffffffffffffffffffffffffffffffffffffff1673ffffffffffffffffffffffffffffffffffffffff16146101e6576040517f08c379a00000000000000000000000000000000000000000000000000000000081526004016101dd90610e0d565b60405180910390fd5b8060008084815260200190815260200160002060030160006101000a81548173ffffffffffffffffffffffffffffffffffffffff021916908373ffffffffffffffffffffffffffffffffffffffff1602179055507f93c4ebc1d891a32eafbc08e49dde0021cf6d58077cde73df10c9f0cd42bad3c482338360405161026d93929190610e2d565b60405180910390a15050565b61028161085c565b6000808381526020019081526020016000206040518060a0016040529081600082015481526020016001820180546102b890610e93565b80601f01602080910402602001604051908101604052809291908181526020018280546102e490610e93565b80156103315780601f1061030657610100808354040283529160200191610331565b820191906000526020600020905b81548152906001019060200180831161031457829003601f168201915b5050505050815260200160028201805461034a90610e93565b80601f016020809104026020016040519081016040528092919081815260200182805461037690610e93565b80156103c35780601f10610398576101008083540402835291602001916103c3565b820191906000526020600020905b8154815290600101906020018083116103a657829003601f168201915b505050505081526020016003820160009054906101000a900473ffffffffffffffffffffffffffffffffffffffff1673ffffffffffffffffffffffffffffffffffffffff1673ffffffffffffffffffffffffffffffffffffffff1681526020016004820154815250509050919050565b600060205280600052604060002060009150905080600001549080600101805461045c90610e93565b80601f016020809104026020016040519081016040528092919081815260200182805461048890610e93565b80156104d55780601f106104aa576101008083540402835291602001916104d5565b820191906000526020600020905b8154815290600101906020018083116104b857829003601f168201915b5050505050908060020180546104ea90610e93565b80601f016020809104026020016040519081016040528092919081815260200182805461051690610e93565b80156105635780601f1061053857610100808354040283529160200191610563565b820191906000526020600020905b81548152906001019060200180831161054657829003601f168201915b5050505050908060030160009054906101000a900473ffffffffffffffffffffffffffffffffffffffff16908060040154905085565b600160008154809291906105ac90610ef3565b91905055506040518060a0016040528060015481526020018281526020016040518060400160405280600981526020017f47656e657261746564000000000000000000000000000000000000000000000081525081526020013373ffffffffffffffffffffffffffffffffffffffff16815260200142815250600080600154815260200190815260200160002060008201518160000155602082015181600101908161065891906110e7565b50604082015181600201908161066e91906110e7565b5060608201518160030160006101000a81548173ffffffffffffffffffffffffffffffffffffffff021916908373ffffffffffffffffffffffffffffffffffffffff160217905550608082015181600401559050507fb2abe6d4ddea7b30f3823f7489201c0ef5f379ce95436323184e67441188c62c600154336040516106f69291906111b9565b60405180910390a150565b60008060008481526020019081526020016000206000015403610759576040517f08c379a00000000000000000000000000000000000000000000000000000000081526004016107509061122e565b60405180910390fd5b3373ffffffffffffffffffffffffffffffffffffffff1660008084815260200190815260200160002060030160009054906101000a900473ffffffffffffffffffffffffffffffffffffffff1673ffffffffffffffffffffffffffffffffffffffff16146107fc576040517f08c379a00000000000000000000000000000000000000000000000000000000081526004016107f390610e0d565b60405180910390fd5b80600080848152602001908152602001600020600201908161081e91906110e7565b507fdc280875b120650ffe3edf5f724f07fd086361a32c2a387fe34b495f5679e77d828260405161085092919061124e565b60405180910390a15050565b6040518060a00160405280600081526020016060815260200160608152602001600073ffffffffffffffffffffffffffffffffffffffff168152602001600081525090565b6000819050919050565b6108b4816108a1565b82525050565b60006020820190506108cf60008301846108ab565b92915050565b6000604051905090565b600080fd5b600080fd5b6108f2816108a1565b81146108fd57600080fd5b50565b60008135905061090f816108e9565b92915050565b600073ffffffffffffffffffffffffffffffffffffffff82169050919050565b600061094082610915565b9050919050565b61095081610935565b811461095b57600080fd5b50565b60008135905061096d81610947565b92915050565b6000806040838503121561098a576109896108df565b5b600061099885828601610900565b92505060206109a98582860161095e565b9150509250929050565b6000602082840312156109c9576109c86108df565b5b60006109d784828501610900565b91505092915050565b6109e9816108a1565b82525050565b600081519050919050565b600082825260208201905092915050565b60005b83811015610a29578082015181840152602081019050610a0e565b60008484015250505050565b6000601f19601f8301169050919050565b6000610a51826109ef565b610a5b81856109fa565b9350610a6b818560208601610a0b565b610a7481610a35565b840191505092915050565b610a8881610935565b82525050565b600060a083016000830151610aa660008601826109e0565b5060208301518482036020860152610abe8282610a46565b91505060408301518482036040860152610ad88282610a46565b9150506060830151610aed6060860182610a7f565b506080830151610b0060808601826109e0565b508091505092915050565b60006020820190508181036000830152610b258184610a8e565b905092915050565b600082825260208201905092915050565b6000610b49826109ef565b610b538185610b2d565b9350610b63818560208601610a0b565b610b6c81610a35565b840191505092915050565b610b8081610935565b82525050565b600060a082019050610b9b60008301886108ab565b8181036020830152610bad8187610b3e565b90508181036040830152610bc18186610b3e565b9050610bd06060830185610b77565b610bdd60808301846108ab565b9695505050505050565b600080fd5b600080fd5b7f4e487b7100000000000000000000000000000000000000000000000000000000600052604160045260246000fd5b610c2982610a35565b810181811067ffffffffffffffff82111715610c4857610c47610bf1565b5b80604052505050565b6000610c5b6108d5565b9050610c678282610c20565b919050565b600067ffffffffffffffff821115610c8757610c86610bf1565b5b610c9082610a35565b9050602081019050919050565b82818337600083830152505050565b6000610cbf610cba84610c6c565b610c51565b905082815260208101848484011115610cdb57610cda610bec565b5b610ce6848285610c9d565b509392505050565b600082601f830112610d0357610d02610be7565b5b8135610d13848260208601610cac565b91505092915050565b600060208284031215610d3257610d316108df565b5b600082013567ffffffffffffffff811115610d5057610d4f6108e4565b5b610d5c84828501610cee565b91505092915050565b60008060408385031215610d7c57610d7b6108df565b5b6000610d8a85828601610900565b925050602083013567ffffffffffffffff811115610dab57610daa6108e4565b5b610db785828601610cee565b9150509250929050565b7f4e6f74206f776e65720000000000000000000000000000000000000000000000600082015250565b6000610df7600983610b2d565b9150610e0282610dc1565b602082019050919050565b60006020820190508181036000830152610e2681610dea565b9050919050565b6000606082019050610e4260008301866108ab565b610e4f6020830185610b77565b610e5c6040830184610b77565b949350505050565b7f4e487b7100000000000000000000000000000000000000000000000000000000600052602260045260246000fd5b60006002820490506001821680610eab57607f821691505b602082108103610ebe57610ebd610e64565b5b50919050565b7f4e487b7100000000000000000000000000000000000000000000000000000000600052601160045260246000fd5b6000610efe826108a1565b91507fffffffffffffffffffffffffffffffffffffffffffffffffffffffffffffffff8203610f3057610f2f610ec4565b5b600182019050919050565b60008190508160005260206000209050919050565b60006020601f8301049050919050565b600082821b905092915050565b600060088302610f9d7fffffffffffffffffffffffffffffffffffffffffffffffffffffffffffffffff82610f60565b610fa78683610f60565b95508019841693508086168417925050509392505050565b6000819050919050565b6000610fe4610fdf610fda846108a1565b610fbf565b6108a1565b9050919050565b6000819050919050565b610ffe83610fc9565b61101261100a82610feb565b848454610f6d565b825550505050565b600090565b61102761101a565b611032818484610ff5565b505050565b5b818110156110565761104b60008261101f565b600181019050611038565b5050565b601f82111561109b5761106c81610f3b565b61107584610f50565b81016020851015611084578190505b61109861109085610f50565b830182611037565b50505b505050565b600082821c905092915050565b60006110be600019846008026110a0565b1980831691505092915050565b60006110d783836110ad565b9150826002028217905092915050565b6110f0826109ef565b67ffffffffffffffff81111561110957611108610bf1565b5b6111138254610e93565b61111e82828561105a565b600060209050601f831160018114611151576000841561113f578287015190505b61114985826110cb565b8655506111b1565b601f19841661115f86610f3b565b60005b8281101561118757848901518255600182019150602085019450602081019050611162565b868310156111a457848901516111a0601f8916826110ad565b8355505b6001600288020188555050505b505050505050565b60006040820190506111ce60008301856108ab565b6111db6020830184610b77565b9392505050565b7f5761737465206e6f7420666f756e640000000000000000000000000000000000600082015250565b6000611218600f83610b2d565b9150611223826111e2565b602082019050919050565b600060208201905081810360008301526112478161120b565b9050919050565b600060408201905061126360008301856108ab565b81810360208301526112758184610b3e565b9050939250505056fea2646970667358221220d077f78b69f87cfc1ef94fd40fcd52f3825f0eaa062d2cb57d2e39b95695150f64736f6c634300081c0033",
  "linkReferences": {},
  "deployedLinkReferences": {}
}